{
  "_format": "hh-sol-artifact-1",
  "contractName": "Pedido",
  "sourceName": "contracts/contratoPedido.sol",
  "abi": [
    {
      "inputs": [],
      "stateMutability": "payable",
      "type": "constructor"
    },
    {
      "anonymous": false,
      "inputs": [
        {
          "indexed": false,
          "internalType": "enum Pedido.StateType",
          "name": "State",
          "type": "uint8"
        },
        {
          "indexed": false,
          "internalType": "address",
          "name": "contratoEntrega",
          "type": "address"
        },
        {
          "indexed": false,
          "internalType": "address",
          "name": "contratoPago",
          "type": "address"
        }
      ],
      "name": "StatusPedido",
      "type": "event"
    },
    {
      "inputs": [],
      "name": "State",
      "outputs": [
        {
          "internalType": "enum Pedido.StateType",
          "name": "",
          "type": "uint8"
        }
      ],
      "stateMutability": "view",
      "type": "function"
    },
    {
      "inputs": [],
      "name": "contratoEntrega",
      "outputs": [
        {
          "internalType": "address",
          "name": "",
          "type": "address"
        }
      ],
      "stateMutability": "view",
      "type": "function"
    },
    {
      "inputs": [],
      "name": "contratoPago",
      "outputs": [
        {
          "internalType": "address",
          "name": "",
          "type": "address"
        }
      ],
      "stateMutability": "view",
      "type": "function"
    },
    {
      "inputs": [],
      "name": "deposit",
      "outputs": [],
      "stateMutability": "payable",
      "type": "function"
    },
    {
      "inputs": [],
      "name": "getState",
      "outputs": [
        {
          "internalType": "uint256",
          "name": "",
          "type": "uint256"
        }
      ],
      "stateMutability": "nonpayable",
      "type": "function"
    },
    {
      "inputs": [
        {
          "internalType": "uint256",
          "name": "resolution",
          "type": "uint256"
        },
        {
          "internalType": "address",
          "name": "contCompensacion",
          "type": "address"
        }
      ],
      "name": "resolutionPedido",
      "outputs": [],
      "stateMutability": "nonpayable",
      "type": "function"
    },
    {
      "inputs": [
        {
          "internalType": "uint256",
          "name": "estado",
          "type": "uint256"
        },
        {
          "internalType": "address",
          "name": "contEntrega",
          "type": "address"
        },
        {
          "internalType": "address",
          "name": "contPago",
          "type": "address"
        }
      ],
      "name": "updateEstado",
      "outputs": [],
      "stateMutability": "nonpayable",
      "type": "function"
    }
  ],
  "bytecode": "0x60806040526005600160146101000a81548160ff0219169083600581111561002a576100296100b7565b5b021790555060008060006101000a81548173ffffffffffffffffffffffffffffffffffffffff021916908373ffffffffffffffffffffffffffffffffffffffff1602179055506000600160006101000a81548173ffffffffffffffffffffffffffffffffffffffff021916908373ffffffffffffffffffffffffffffffffffffffff1602179055506100e6565b7f4e487b7100000000000000000000000000000000000000000000000000000000600052602160045260246000fd5b610bf3806100f56000396000f3fe6080604052600436106100705760003560e01c8063ac661ba11161004e578063ac661ba1146100f2578063c7be78591461011d578063d0e30db014610148578063f1b6dccd1461015257610070565b80631865c57d14610075578063343dbfc3146100a05780635eee5b7f146100c9575b600080fd5b34801561008157600080fd5b5061008a61017d565b60405161009791906108b3565b60405180910390f35b3480156100ac57600080fd5b506100c760048036038101906100c2919061095d565b610306565b005b3480156100d557600080fd5b506100f060048036038101906100eb91906109b0565b6106b5565b005b3480156100fe57600080fd5b50610107610739565b60405161011491906109ff565b60405180910390f35b34801561012957600080fd5b5061013261075d565b60405161013f91906109ff565b60405180910390f35b610150610783565b005b34801561015e57600080fd5b50610167610785565b6040516101749190610a91565b60405180910390f35b6000806000600581111561019457610193610a1a565b5b600160149054906101000a900460ff1660058111156101b6576101b5610a1a565b5b036101c057600090505b600160058111156101d4576101d3610a1a565b5b600160149054906101000a900460ff1660058111156101f6576101f5610a1a565b5b0361020057600190505b6002600581111561021457610213610a1a565b5b600160149054906101000a900460ff16600581111561023657610235610a1a565b5b0361024057600290505b6003600581111561025457610253610a1a565b5b600160149054906101000a900460ff16600581111561027657610275610a1a565b5b0361028057600390505b6004600581111561029457610293610a1a565b5b600160149054906101000a900460ff1660058111156102b6576102b5610a1a565b5b036102c057600490505b6005808111156102d3576102d2610a1a565b5b600160149054906101000a900460ff1660058111156102f5576102f4610a1a565b5b036102ff57600590505b8091505090565b600073ffffffffffffffffffffffffffffffffffffffff168273ffffffffffffffffffffffffffffffffffffffff160361035e5760008054906101000a900473ffffffffffffffffffffffffffffffffffffffff1691505b600073ffffffffffffffffffffffffffffffffffffffff168173ffffffffffffffffffffffffffffffffffffffff16036103b857600160009054906101000a900473ffffffffffffffffffffffffffffffffffffffff1690505b60018314806103c75750600283145b1561054957600073ffffffffffffffffffffffffffffffffffffffff168273ffffffffffffffffffffffffffffffffffffffff160361040557600080fd5b6000829050600184036104a85760018060146101000a81548160ff0219169083600581111561043757610436610a1a565b5b02179055508073ffffffffffffffffffffffffffffffffffffffff16631c5a9d9c836040518263ffffffff1660e01b815260040161047591906109ff565b600060405180830381600087803b15801561048f57600080fd5b505af11580156104a3573d6000803e3d6000fd5b505050505b60028403610547576002600160146101000a81548160ff021916908360058111156104d6576104d5610a1a565b5b02179055508073ffffffffffffffffffffffffffffffffffffffff166307ed864d306040518263ffffffff1660e01b815260040161051491906109ff565b600060405180830381600087803b15801561052e57600080fd5b505af1158015610542573d6000803e3d6000fd5b505050505b505b600083036105fe576000600160146101000a81548160ff0219169083600581111561057757610576610a1a565b5b021790555080600160006101000a81548173ffffffffffffffffffffffffffffffffffffffff021916908373ffffffffffffffffffffffffffffffffffffffff160217905550816000806101000a81548173ffffffffffffffffffffffffffffffffffffffff021916908373ffffffffffffffffffffffffffffffffffffffff1602179055505b60038303610632576003600160146101000a81548160ff0219169083600581111561062c5761062b610a1a565b5b02179055505b60048303610666576004600160146101000a81548160ff021916908360058111156106605761065f610a1a565b5b02179055505b7f0197a7b812ece05abdbb9a99c79e1ef122bb477aee6f1fb6f8855ed3697e6200600160149054906101000a900460ff1683836040516106a893929190610aac565b60405180910390a1505050565b600260058111156106c9576106c8610a1a565b5b600160149054906101000a900460ff1660058111156106eb576106ea610a1a565b5b1461072b576040517f08c379a000000000000000000000000000000000000000000000000000000000815260040161072290610b66565b60405180910390fd5b6107358282610798565b5050565b60008054906101000a900473ffffffffffffffffffffffffffffffffffffffff1681565b600160009054906101000a900473ffffffffffffffffffffffffffffffffffffffff1681565b565b600160149054906101000a900460ff1681565b60004790506000600160009054906101000a900473ffffffffffffffffffffffffffffffffffffffff1690508073ffffffffffffffffffffffffffffffffffffffff1663d0e30db0836040518263ffffffff1660e01b81526004016000604051808303818588803b15801561080c57600080fd5b505af1158015610820573d6000803e3d6000fd5b50505050508073ffffffffffffffffffffffffffffffffffffffff1663137cdf303086866040518463ffffffff1660e01b815260040161086293929190610b86565b600060405180830381600087803b15801561087c57600080fd5b505af1158015610890573d6000803e3d6000fd5b5050505050505050565b6000819050919050565b6108ad8161089a565b82525050565b60006020820190506108c860008301846108a4565b92915050565b600080fd5b6108dc8161089a565b81146108e757600080fd5b50565b6000813590506108f9816108d3565b92915050565b600073ffffffffffffffffffffffffffffffffffffffff82169050919050565b600061092a826108ff565b9050919050565b61093a8161091f565b811461094557600080fd5b50565b60008135905061095781610931565b92915050565b600080600060608486031215610976576109756108ce565b5b6000610984868287016108ea565b935050602061099586828701610948565b92505060406109a686828701610948565b9150509250925092565b600080604083850312156109c7576109c66108ce565b5b60006109d5858286016108ea565b92505060206109e685828601610948565b9150509250929050565b6109f98161091f565b82525050565b6000602082019050610a1460008301846109f0565b92915050565b7f4e487b7100000000000000000000000000000000000000000000000000000000600052602160045260246000fd5b60068110610a5a57610a59610a1a565b5b50565b6000819050610a6b82610a49565b919050565b6000610a7b82610a5d565b9050919050565b610a8b81610a70565b82525050565b6000602082019050610aa66000830184610a82565b92915050565b6000606082019050610ac16000830186610a82565b610ace60208301856109f0565b610adb60408301846109f0565b949350505050565b600082825260208201905092915050565b7f41756e206e6f20736520686120656e7472656761646f20656c2070656469646f60008201527f2e20436f6d6f20707565646520736162657220636f6d6f2068612069646f3f00602082015250565b6000610b50603f83610ae3565b9150610b5b82610af4565b604082019050919050565b60006020820190508181036000830152610b7f81610b43565b9050919050565b6000606082019050610b9b60008301866109f0565b610ba860208301856108a4565b610bb560408301846109f0565b94935050505056fea264697066735822122097548f047932ceb21be19c8af96455882aaea66f07452025cef4a1d9907dd66e64736f6c63430008120033",
  "linkReferences": {},
  "deployedLinkReferences": {}
}