{
  "_format": "hh-sol-artifact-1",
  "contractName": "Entrega",
  "sourceName": "contracts/contratoEntrega.sol",
  "abi": [
    {
      "inputs": [],
      "stateMutability": "nonpayable",
      "type": "constructor"
    },
    {
      "anonymous": false,
      "inputs": [
        {
          "indexed": false,
          "internalType": "address",
          "name": "walletUser",
          "type": "address"
        },
        {
          "indexed": false,
          "internalType": "address",
          "name": "walletRestaurante",
          "type": "address"
        },
        {
          "indexed": false,
          "internalType": "address",
          "name": "walletRepartidor",
          "type": "address"
        }
      ],
      "name": "Actores",
      "type": "event"
    },
    {
      "anonymous": false,
      "inputs": [
        {
          "indexed": false,
          "internalType": "enum Entrega.StateType",
          "name": "State",
          "type": "uint8"
        }
      ],
      "name": "StatusEntrega",
      "type": "event"
    },
    {
      "inputs": [],
      "name": "State",
      "outputs": [
        {
          "internalType": "enum Entrega.StateType",
          "name": "",
          "type": "uint8"
        }
      ],
      "stateMutability": "view",
      "type": "function"
    },
    {
      "inputs": [
        {
          "internalType": "address",
          "name": "contPago",
          "type": "address"
        }
      ],
      "name": "activate",
      "outputs": [],
      "stateMutability": "nonpayable",
      "type": "function"
    },
    {
      "inputs": [
        {
          "internalType": "string",
          "name": "usuario",
          "type": "string"
        },
        {
          "internalType": "string",
          "name": "restaurante",
          "type": "string"
        },
        {
          "internalType": "string",
          "name": "repartidor",
          "type": "string"
        }
      ],
      "name": "actors",
      "outputs": [],
      "stateMutability": "nonpayable",
      "type": "function"
    },
    {
      "inputs": [
        {
          "internalType": "address",
          "name": "contPedido",
          "type": "address"
        }
      ],
      "name": "consummation",
      "outputs": [],
      "stateMutability": "nonpayable",
      "type": "function"
    },
    {
      "inputs": [],
      "name": "contratoPago",
      "outputs": [
        {
          "internalType": "address",
          "name": "",
          "type": "address"
        }
      ],
      "stateMutability": "view",
      "type": "function"
    },
    {
      "inputs": [],
      "name": "showDel",
      "outputs": [
        {
          "internalType": "uint256",
          "name": "",
          "type": "uint256"
        }
      ],
      "stateMutability": "view",
      "type": "function"
    },
    {
      "inputs": [],
      "name": "showRest",
      "outputs": [
        {
          "internalType": "uint256",
          "name": "",
          "type": "uint256"
        }
      ],
      "stateMutability": "view",
      "type": "function"
    },
    {
      "inputs": [],
      "name": "showuser",
      "outputs": [
        {
          "internalType": "uint256",
          "name": "",
          "type": "uint256"
        }
      ],
      "stateMutability": "view",
      "type": "function"
    },
    {
      "inputs": [],
      "name": "walletRepartidor",
      "outputs": [
        {
          "internalType": "address",
          "name": "",
          "type": "address"
        }
      ],
      "stateMutability": "view",
      "type": "function"
    },
    {
      "inputs": [],
      "name": "walletRestaurante",
      "outputs": [
        {
          "internalType": "address",
          "name": "",
          "type": "address"
        }
      ],
      "stateMutability": "view",
      "type": "function"
    },
    {
      "inputs": [],
      "name": "walletUser",
      "outputs": [
        {
          "internalType": "address",
          "name": "",
          "type": "address"
        }
      ],
      "stateMutability": "view",
      "type": "function"
    }
  ],
  "bytecode": "0x608060405234801561001057600080fd5b506001600360146101000a81548160ff0219169083600181111561003757610036610082565b5b021790555060008060006101000a81548173ffffffffffffffffffffffffffffffffffffffff021916908373ffffffffffffffffffffffffffffffffffffffff1602179055506100b1565b7f4e487b7100000000000000000000000000000000000000000000000000000000600052602160045260246000fd5b610d8d806100c06000396000f3fe608060405234801561001057600080fd5b50600436106100a95760003560e01c806353b9492a1161007157806353b9492a1461013e5780637465fdd71461015c5780637564619b1461017a578063b747a1e814610198578063c7be7859146101b6578063f1b6dccd146101d4576100a9565b80630688ee9c146100ae57806307ed864d146100cc5780631c5a9d9c146100e8578063257e757a146101045780633af1725f14610120575b600080fd5b6100b66101f2565b6040516100c391906107f1565b60405180910390f35b6100e660048036038101906100e1919061087e565b610233565b005b61010260048036038101906100fd919061087e565b61036e565b005b61011e600480360381019061011991906109f1565b610422565b005b6101286105af565b6040516101359190610aa7565b60405180910390f35b6101466105d5565b6040516101539190610aa7565b60405180910390f35b6101646105fb565b6040516101719190610aa7565b60405180910390f35b610182610621565b60405161018f91906107f1565b60405180910390f35b6101a0610662565b6040516101ad91906107f1565b60405180910390f35b6101be6106a3565b6040516101cb9190610aa7565b60405180910390f35b6101dc6106c7565b6040516101e99190610b39565b60405180910390f35b6000600160009054906101000a900473ffffffffffffffffffffffffffffffffffffffff1673ffffffffffffffffffffffffffffffffffffffff1631905090565b600081905060008173ffffffffffffffffffffffffffffffffffffffff16631865c57d6040518163ffffffff1660e01b81526004016020604051808303816000875af1158015610287573d6000803e3d6000fd5b505050506040513d601f19601f820116820180604052508101906102ab9190610b80565b9050600281146102f0576040517f08c379a00000000000000000000000000000000000000000000000000000000081526004016102e790610c30565b60405180910390fd5b6001600360146101000a81548160ff0219169083600181111561031657610315610ac2565b5b02179055507f3782cf551a530031bebfb549ab63d1e742844e6fc1a48d9220152ae9374f8b02600360149054906101000a900460ff166040516103599190610b39565b60405180910390a16103696106da565b505050565b806000806101000a81548173ffffffffffffffffffffffffffffffffffffffff021916908373ffffffffffffffffffffffffffffffffffffffff1602179055506000600360146101000a81548160ff021916908360018111156103d4576103d3610ac2565b5b02179055507f3782cf551a530031bebfb549ab63d1e742844e6fc1a48d9220152ae9374f8b02600360149054906101000a900460ff166040516104179190610b39565b60405180910390a150565b8261042c90610cb9565b60601c600160006101000a81548173ffffffffffffffffffffffffffffffffffffffff021916908373ffffffffffffffffffffffffffffffffffffffff1602179055508161047990610cb9565b60601c600260006101000a81548173ffffffffffffffffffffffffffffffffffffffff021916908373ffffffffffffffffffffffffffffffffffffffff160217905550806104c690610cb9565b60601c600360006101000a81548173ffffffffffffffffffffffffffffffffffffffff021916908373ffffffffffffffffffffffffffffffffffffffff1602179055507f1cd40c40f878e63fa2bb52d5a31f0e456e47a8d2573f180ae777ef4ca64869a0600160009054906101000a900473ffffffffffffffffffffffffffffffffffffffff16600260009054906101000a900473ffffffffffffffffffffffffffffffffffffffff16600360009054906101000a900473ffffffffffffffffffffffffffffffffffffffff166040516105a293929190610d20565b60405180910390a1505050565b600360009054906101000a900473ffffffffffffffffffffffffffffffffffffffff1681565b600260009054906101000a900473ffffffffffffffffffffffffffffffffffffffff1681565b600160009054906101000a900473ffffffffffffffffffffffffffffffffffffffff1681565b6000600360009054906101000a900473ffffffffffffffffffffffffffffffffffffffff1673ffffffffffffffffffffffffffffffffffffffff1631905090565b6000600260009054906101000a900473ffffffffffffffffffffffffffffffffffffffff1673ffffffffffffffffffffffffffffffffffffffff1631905090565b60008054906101000a900473ffffffffffffffffffffffffffffffffffffffff1681565b600360149054906101000a900460ff1681565b60008060009054906101000a900473ffffffffffffffffffffffffffffffffffffffff1690508073ffffffffffffffffffffffffffffffffffffffff1663119b90cd600160009054906101000a900473ffffffffffffffffffffffffffffffffffffffff16600260009054906101000a900473ffffffffffffffffffffffffffffffffffffffff16600360009054906101000a900473ffffffffffffffffffffffffffffffffffffffff166040518463ffffffff1660e01b81526004016107a393929190610d20565b600060405180830381600087803b1580156107bd57600080fd5b505af11580156107d1573d6000803e3d6000fd5b5050505050565b6000819050919050565b6107eb816107d8565b82525050565b600060208201905061080660008301846107e2565b92915050565b6000604051905090565b600080fd5b600080fd5b600073ffffffffffffffffffffffffffffffffffffffff82169050919050565b600061084b82610820565b9050919050565b61085b81610840565b811461086657600080fd5b50565b60008135905061087881610852565b92915050565b60006020828403121561089457610893610816565b5b60006108a284828501610869565b91505092915050565b600080fd5b600080fd5b6000601f19601f8301169050919050565b7f4e487b7100000000000000000000000000000000000000000000000000000000600052604160045260246000fd5b6108fe826108b5565b810181811067ffffffffffffffff8211171561091d5761091c6108c6565b5b80604052505050565b600061093061080c565b905061093c82826108f5565b919050565b600067ffffffffffffffff82111561095c5761095b6108c6565b5b610965826108b5565b9050602081019050919050565b82818337600083830152505050565b600061099461098f84610941565b610926565b9050828152602081018484840111156109b0576109af6108b0565b5b6109bb848285610972565b509392505050565b600082601f8301126109d8576109d76108ab565b5b81356109e8848260208601610981565b91505092915050565b600080600060608486031215610a0a57610a09610816565b5b600084013567ffffffffffffffff811115610a2857610a2761081b565b5b610a34868287016109c3565b935050602084013567ffffffffffffffff811115610a5557610a5461081b565b5b610a61868287016109c3565b925050604084013567ffffffffffffffff811115610a8257610a8161081b565b5b610a8e868287016109c3565b9150509250925092565b610aa181610840565b82525050565b6000602082019050610abc6000830184610a98565b92915050565b7f4e487b7100000000000000000000000000000000000000000000000000000000600052602160045260246000fd5b60028110610b0257610b01610ac2565b5b50565b6000819050610b1382610af1565b919050565b6000610b2382610b05565b9050919050565b610b3381610b18565b82525050565b6000602082019050610b4e6000830184610b2a565b92915050565b610b5d816107d8565b8114610b6857600080fd5b50565b600081519050610b7a81610b54565b92915050565b600060208284031215610b9657610b95610816565b5b6000610ba484828501610b6b565b91505092915050565b600082825260208201905092915050565b7f41756e206e6f20736520686120656e7472656761646f20656c2070656469646f60008201527f2e00000000000000000000000000000000000000000000000000000000000000602082015250565b6000610c1a602183610bad565b9150610c2582610bbe565b604082019050919050565b60006020820190508181036000830152610c4981610c0d565b9050919050565b600081519050919050565b6000819050602082019050919050565b60007fffffffffffffffffffffffffffffffffffffffff00000000000000000000000082169050919050565b6000610ca38251610c6b565b80915050919050565b600082821b905092915050565b6000610cc482610c50565b82610cce84610c5b565b9050610cd981610c97565b92506014821015610d1957610d147fffffffffffffffffffffffffffffffffffffffff00000000000000000000000083601403600802610cac565b831692505b5050919050565b6000606082019050610d356000830186610a98565b610d426020830185610a98565b610d4f6040830184610a98565b94935050505056fea2646970667358221220af21291a16fe434fafe3706d6a3fb6bc1556c26679cd6967e0fc4a9e4b1c190764736f6c63430008120033",
  "linkReferences": {},
  "deployedLinkReferences": {}
}