{
  "_format": "hh-sol-artifact-1",
  "contractName": "Entrega",
  "sourceName": "contracts/contratoEntrega.sol",
  "abi": [
    {
      "inputs": [],
      "stateMutability": "nonpayable",
      "type": "constructor"
    },
    {
      "anonymous": false,
      "inputs": [
        {
          "indexed": false,
          "internalType": "address",
          "name": "walletUser",
          "type": "address"
        },
        {
          "indexed": false,
          "internalType": "address",
          "name": "walletRestaurante",
          "type": "address"
        },
        {
          "indexed": false,
          "internalType": "address",
          "name": "walletRepartidor",
          "type": "address"
        }
      ],
      "name": "Actores",
      "type": "event"
    },
    {
      "anonymous": false,
      "inputs": [
        {
          "indexed": false,
          "internalType": "enum Entrega.StateType",
          "name": "State",
          "type": "uint8"
        }
      ],
      "name": "StatusEntrega",
      "type": "event"
    },
    {
      "inputs": [],
      "name": "State",
      "outputs": [
        {
          "internalType": "enum Entrega.StateType",
          "name": "",
          "type": "uint8"
        }
      ],
      "stateMutability": "view",
      "type": "function"
    },
    {
      "inputs": [
        {
          "internalType": "address",
          "name": "contPago",
          "type": "address"
        }
      ],
      "name": "activate",
      "outputs": [],
      "stateMutability": "nonpayable",
      "type": "function"
    },
    {
      "inputs": [
        {
          "internalType": "address payable",
          "name": "usuario",
          "type": "address"
        },
        {
          "internalType": "address payable",
          "name": "restaurante",
          "type": "address"
        },
        {
          "internalType": "address payable",
          "name": "repartidor",
          "type": "address"
        }
      ],
      "name": "actors",
      "outputs": [],
      "stateMutability": "nonpayable",
      "type": "function"
    },
    {
      "inputs": [
        {
          "internalType": "address",
          "name": "contPedido",
          "type": "address"
        }
      ],
      "name": "consummation",
      "outputs": [],
      "stateMutability": "nonpayable",
      "type": "function"
    },
    {
      "inputs": [],
      "name": "contratoPago",
      "outputs": [
        {
          "internalType": "address",
          "name": "",
          "type": "address"
        }
      ],
      "stateMutability": "view",
      "type": "function"
    },
    {
      "inputs": [],
      "name": "showDel",
      "outputs": [
        {
          "internalType": "uint256",
          "name": "",
          "type": "uint256"
        }
      ],
      "stateMutability": "view",
      "type": "function"
    },
    {
      "inputs": [],
      "name": "showRest",
      "outputs": [
        {
          "internalType": "uint256",
          "name": "",
          "type": "uint256"
        }
      ],
      "stateMutability": "view",
      "type": "function"
    },
    {
      "inputs": [],
      "name": "showuser",
      "outputs": [
        {
          "internalType": "uint256",
          "name": "",
          "type": "uint256"
        }
      ],
      "stateMutability": "view",
      "type": "function"
    },
    {
      "inputs": [],
      "name": "walletRepartidor",
      "outputs": [
        {
          "internalType": "address payable",
          "name": "",
          "type": "address"
        }
      ],
      "stateMutability": "view",
      "type": "function"
    },
    {
      "inputs": [],
      "name": "walletRestaurante",
      "outputs": [
        {
          "internalType": "address payable",
          "name": "",
          "type": "address"
        }
      ],
      "stateMutability": "view",
      "type": "function"
    },
    {
      "inputs": [],
      "name": "walletUser",
      "outputs": [
        {
          "internalType": "address payable",
          "name": "",
          "type": "address"
        }
      ],
      "stateMutability": "view",
      "type": "function"
    }
  ],
  "bytecode": "0x608060405234801561001057600080fd5b506001600360146101000a81548160ff0219169083600181111561003757610036610082565b5b021790555060008060006101000a81548173ffffffffffffffffffffffffffffffffffffffff021916908373ffffffffffffffffffffffffffffffffffffffff1602179055506100b1565b7f4e487b7100000000000000000000000000000000000000000000000000000000600052602160045260246000fd5b610bee806100c06000396000f3fe608060405234801561001057600080fd5b50600436106100a95760003560e01c806370839e461161007157806370839e46146101405780637465fdd71461015c5780637564619b1461017a578063b747a1e814610198578063c7be7859146101b6578063f1b6dccd146101d4576100a9565b80630688ee9c146100ae57806307ed864d146100cc5780631c5a9d9c146100e85780633af1725f1461010457806353b9492a14610122575b600080fd5b6100b66101f2565b6040516100c391906107cd565b60405180910390f35b6100e660048036038101906100e1919061084b565b610233565b005b61010260048036038101906100fd919061084b565b61036e565b005b61010c610422565b6040516101199190610899565b60405180910390f35b61012a610448565b6040516101379190610899565b60405180910390f35b61015a600480360381019061015591906108e0565b61046e565b005b6101646105d7565b6040516101719190610899565b60405180910390f35b6101826105fd565b60405161018f91906107cd565b60405180910390f35b6101a061063e565b6040516101ad91906107cd565b60405180910390f35b6101be61067f565b6040516101cb9190610942565b60405180910390f35b6101dc6106a3565b6040516101e991906109d4565b60405180910390f35b6000600160009054906101000a900473ffffffffffffffffffffffffffffffffffffffff1673ffffffffffffffffffffffffffffffffffffffff1631905090565b600081905060008173ffffffffffffffffffffffffffffffffffffffff16631865c57d6040518163ffffffff1660e01b81526004016020604051808303816000875af1158015610287573d6000803e3d6000fd5b505050506040513d601f19601f820116820180604052508101906102ab9190610a1b565b9050600281146102f0576040517f08c379a00000000000000000000000000000000000000000000000000000000081526004016102e790610acb565b60405180910390fd5b6001600360146101000a81548160ff021916908360018111156103165761031561095d565b5b02179055507f3782cf551a530031bebfb549ab63d1e742844e6fc1a48d9220152ae9374f8b02600360149054906101000a900460ff1660405161035991906109d4565b60405180910390a16103696106b6565b505050565b806000806101000a81548173ffffffffffffffffffffffffffffffffffffffff021916908373ffffffffffffffffffffffffffffffffffffffff1602179055506000600360146101000a81548160ff021916908360018111156103d4576103d361095d565b5b02179055507f3782cf551a530031bebfb549ab63d1e742844e6fc1a48d9220152ae9374f8b02600360149054906101000a900460ff1660405161041791906109d4565b60405180910390a150565b600360009054906101000a900473ffffffffffffffffffffffffffffffffffffffff1681565b600260009054906101000a900473ffffffffffffffffffffffffffffffffffffffff1681565b82600160006101000a81548173ffffffffffffffffffffffffffffffffffffffff021916908373ffffffffffffffffffffffffffffffffffffffff16021790555081600260006101000a81548173ffffffffffffffffffffffffffffffffffffffff021916908373ffffffffffffffffffffffffffffffffffffffff16021790555080600360006101000a81548173ffffffffffffffffffffffffffffffffffffffff021916908373ffffffffffffffffffffffffffffffffffffffff1602179055507f1cd40c40f878e63fa2bb52d5a31f0e456e47a8d2573f180ae777ef4ca64869a0600160009054906101000a900473ffffffffffffffffffffffffffffffffffffffff16600260009054906101000a900473ffffffffffffffffffffffffffffffffffffffff16600360009054906101000a900473ffffffffffffffffffffffffffffffffffffffff166040516105ca93929190610b4a565b60405180910390a1505050565b600160009054906101000a900473ffffffffffffffffffffffffffffffffffffffff1681565b6000600360009054906101000a900473ffffffffffffffffffffffffffffffffffffffff1673ffffffffffffffffffffffffffffffffffffffff1631905090565b6000600260009054906101000a900473ffffffffffffffffffffffffffffffffffffffff1673ffffffffffffffffffffffffffffffffffffffff1631905090565b60008054906101000a900473ffffffffffffffffffffffffffffffffffffffff1681565b600360149054906101000a900460ff1681565b60008060009054906101000a900473ffffffffffffffffffffffffffffffffffffffff1690508073ffffffffffffffffffffffffffffffffffffffff1663119b90cd600160009054906101000a900473ffffffffffffffffffffffffffffffffffffffff16600260009054906101000a900473ffffffffffffffffffffffffffffffffffffffff16600360009054906101000a900473ffffffffffffffffffffffffffffffffffffffff166040518463ffffffff1660e01b815260040161077f93929190610b81565b600060405180830381600087803b15801561079957600080fd5b505af11580156107ad573d6000803e3d6000fd5b5050505050565b6000819050919050565b6107c7816107b4565b82525050565b60006020820190506107e260008301846107be565b92915050565b600080fd5b600073ffffffffffffffffffffffffffffffffffffffff82169050919050565b6000610818826107ed565b9050919050565b6108288161080d565b811461083357600080fd5b50565b6000813590506108458161081f565b92915050565b600060208284031215610861576108606107e8565b5b600061086f84828501610836565b91505092915050565b6000610883826107ed565b9050919050565b61089381610878565b82525050565b60006020820190506108ae600083018461088a565b92915050565b6108bd81610878565b81146108c857600080fd5b50565b6000813590506108da816108b4565b92915050565b6000806000606084860312156108f9576108f86107e8565b5b6000610907868287016108cb565b9350506020610918868287016108cb565b9250506040610929868287016108cb565b9150509250925092565b61093c8161080d565b82525050565b60006020820190506109576000830184610933565b92915050565b7f4e487b7100000000000000000000000000000000000000000000000000000000600052602160045260246000fd5b6002811061099d5761099c61095d565b5b50565b60008190506109ae8261098c565b919050565b60006109be826109a0565b9050919050565b6109ce816109b3565b82525050565b60006020820190506109e960008301846109c5565b92915050565b6109f8816107b4565b8114610a0357600080fd5b50565b600081519050610a15816109ef565b92915050565b600060208284031215610a3157610a306107e8565b5b6000610a3f84828501610a06565b91505092915050565b600082825260208201905092915050565b7f41756e206e6f20736520686120656e7472656761646f20656c2070656469646f60008201527f2e00000000000000000000000000000000000000000000000000000000000000602082015250565b6000610ab5602183610a48565b9150610ac082610a59565b604082019050919050565b60006020820190508181036000830152610ae481610aa8565b9050919050565b6000819050919050565b6000610b10610b0b610b06846107ed565b610aeb565b6107ed565b9050919050565b6000610b2282610af5565b9050919050565b6000610b3482610b17565b9050919050565b610b4481610b29565b82525050565b6000606082019050610b5f6000830186610b3b565b610b6c6020830185610b3b565b610b796040830184610b3b565b949350505050565b6000606082019050610b96600083018661088a565b610ba3602083018561088a565b610bb0604083018461088a565b94935050505056fea2646970667358221220c0fe67e7f7c2cef26315e8a01c230cca5e70a689ec6baa18c07610f22854acda64736f6c63430008120033",
  "linkReferences": {},
  "deployedLinkReferences": {}
}