{
  "_format": "hh-sol-artifact-1",
  "contractName": "Compensacion",
  "sourceName": "contracts/contratoCompensacion.sol",
  "abi": [
    {
      "anonymous": false,
      "inputs": [
        {
          "indexed": true,
          "internalType": "address",
          "name": "payee",
          "type": "address"
        },
        {
          "indexed": false,
          "internalType": "uint256",
          "name": "weiAmount",
          "type": "uint256"
        }
      ],
      "name": "Withdrawn",
      "type": "event"
    },
    {
      "inputs": [
        {
          "internalType": "address payable",
          "name": "user",
          "type": "address"
        }
      ],
      "name": "compensar",
      "outputs": [],
      "stateMutability": "nonpayable",
      "type": "function"
    },
    {
      "inputs": [],
      "name": "deposit",
      "outputs": [],
      "stateMutability": "payable",
      "type": "function"
    }
  ],
  "bytecode": "0x608060405234801561001057600080fd5b506102a5806100206000396000f3fe6080604052600436106100295760003560e01c806349c055f81461002e578063d0e30db014610057575b600080fd5b34801561003a57600080fd5b506100556004803603810190610050919061017f565b610061565b005b61005f61011a565b005b60004790506000808373ffffffffffffffffffffffffffffffffffffffff168360405161008d906101dd565b60006040518083038185875af1925050503d80600081146100ca576040519150601f19603f3d011682016040523d82523d6000602084013e6100cf565b606091505b509150915081610114576040517f08c379a000000000000000000000000000000000000000000000000000000000815260040161010b9061024f565b60405180910390fd5b50505050565b565b600080fd5b600073ffffffffffffffffffffffffffffffffffffffff82169050919050565b600061014c82610121565b9050919050565b61015c81610141565b811461016757600080fd5b50565b60008135905061017981610153565b92915050565b6000602082840312156101955761019461011c565b5b60006101a38482850161016a565b91505092915050565b600081905092915050565b50565b60006101c76000836101ac565b91506101d2826101b7565b600082019050919050565b60006101e8826101ba565b9150819050919050565b600082825260208201905092915050565b7f4661696c656420746f2073656e6420457468657220746f2064656c6976657279600082015250565b60006102396020836101f2565b915061024482610203565b602082019050919050565b600060208201905081810360008301526102688161022c565b905091905056fea2646970667358221220135a908a39d15bd03716dc13830f198cd98fc4f1fb44731689a2756d954989c964736f6c63430008120033",
  "linkReferences": {},
  "deployedLinkReferences": {}
}