{
  "_format": "hh-sol-artifact-1",
  "contractName": "Producto",
  "sourceName": "contracts/contratoProducto.sol",
  "abi": [
    {
      "inputs": [
        {
          "internalType": "address",
          "name": "cPedido",
          "type": "address"
        },
        {
          "internalType": "address",
          "name": "cEntrega",
          "type": "address"
        },
        {
          "internalType": "address",
          "name": "cPago",
          "type": "address"
        },
        {
          "internalType": "address",
          "name": "cCompensacion",
          "type": "address"
        }
      ],
      "stateMutability": "payable",
      "type": "constructor"
    },
    {
      "anonymous": false,
      "inputs": [
        {
          "indexed": false,
          "internalType": "address",
          "name": "buyer",
          "type": "address"
        },
        {
          "indexed": false,
          "internalType": "address",
          "name": "seller",
          "type": "address"
        },
        {
          "indexed": false,
          "internalType": "address",
          "name": "contratoPedido",
          "type": "address"
        },
        {
          "indexed": false,
          "internalType": "address",
          "name": "contratoEntrega",
          "type": "address"
        },
        {
          "indexed": false,
          "internalType": "address",
          "name": "contratoPago",
          "type": "address"
        },
        {
          "indexed": false,
          "internalType": "address",
          "name": "contratoCompensacion",
          "type": "address"
        }
      ],
      "name": "ListAdress",
      "type": "event"
    },
    {
      "anonymous": false,
      "inputs": [
        {
          "indexed": false,
          "internalType": "string",
          "name": "producto",
          "type": "string"
        },
        {
          "indexed": false,
          "internalType": "uint256",
          "name": "price",
          "type": "uint256"
        }
      ],
      "name": "PurchasedItem",
      "type": "event"
    },
    {
      "inputs": [],
      "name": "buyer",
      "outputs": [
        {
          "internalType": "address payable",
          "name": "",
          "type": "address"
        }
      ],
      "stateMutability": "view",
      "type": "function"
    },
    {
      "inputs": [],
      "name": "contratoCompensacion",
      "outputs": [
        {
          "internalType": "address",
          "name": "",
          "type": "address"
        }
      ],
      "stateMutability": "view",
      "type": "function"
    },
    {
      "inputs": [],
      "name": "contratoEntrega",
      "outputs": [
        {
          "internalType": "address",
          "name": "",
          "type": "address"
        }
      ],
      "stateMutability": "view",
      "type": "function"
    },
    {
      "inputs": [],
      "name": "contratoPago",
      "outputs": [
        {
          "internalType": "address",
          "name": "",
          "type": "address"
        }
      ],
      "stateMutability": "view",
      "type": "function"
    },
    {
      "inputs": [],
      "name": "contratoPedido",
      "outputs": [
        {
          "internalType": "address",
          "name": "",
          "type": "address"
        }
      ],
      "stateMutability": "view",
      "type": "function"
    },
    {
      "inputs": [],
      "name": "price",
      "outputs": [
        {
          "internalType": "uint256",
          "name": "",
          "type": "uint256"
        }
      ],
      "stateMutability": "view",
      "type": "function"
    },
    {
      "inputs": [],
      "name": "seller",
      "outputs": [
        {
          "internalType": "address",
          "name": "",
          "type": "address"
        }
      ],
      "stateMutability": "view",
      "type": "function"
    },
    {
      "inputs": [
        {
          "internalType": "string",
          "name": "producto",
          "type": "string"
        },
        {
          "internalType": "uint256",
          "name": "precio",
          "type": "uint256"
        },
        {
          "internalType": "address",
          "name": "vendedor",
          "type": "address"
        }
      ],
      "name": "updateAndBuyProducto",
      "outputs": [],
      "stateMutability": "payable",
      "type": "function"
    }
  ],
  "bytecode": "0x6080604052604051620011b7380380620011b78339818101604052810190620000299190620001e2565b33600160006101000a81548173ffffffffffffffffffffffffffffffffffffffff021916908373ffffffffffffffffffffffffffffffffffffffff16021790555083600360006101000a81548173ffffffffffffffffffffffffffffffffffffffff021916908373ffffffffffffffffffffffffffffffffffffffff16021790555082600460006101000a81548173ffffffffffffffffffffffffffffffffffffffff021916908373ffffffffffffffffffffffffffffffffffffffff16021790555081600560006101000a81548173ffffffffffffffffffffffffffffffffffffffff021916908373ffffffffffffffffffffffffffffffffffffffff16021790555080600660006101000a81548173ffffffffffffffffffffffffffffffffffffffff021916908373ffffffffffffffffffffffffffffffffffffffff1602179055505050505062000254565b600080fd5b600073ffffffffffffffffffffffffffffffffffffffff82169050919050565b6000620001aa826200017d565b9050919050565b620001bc816200019d565b8114620001c857600080fd5b50565b600081519050620001dc81620001b1565b92915050565b60008060008060808587031215620001ff57620001fe62000178565b5b60006200020f87828801620001cb565b94505060206200022287828801620001cb565b93505060406200023587828801620001cb565b92505060606200024887828801620001cb565b91505092959194509250565b610f5380620002646000396000f3fe60806040526004361061007b5760003560e01c8063a035b1fe1161004e578063a035b1fe1461012c578063ac661ba114610157578063c7be785914610182578063cb0921f5146101ad5761007b565b806308551a5314610080578063542d0b88146100ab5780637150d8ae146100d65780638da3ad7e14610101575b600080fd5b34801561008c57600080fd5b506100956101c9565b6040516100a29190610848565b60405180910390f35b3480156100b757600080fd5b506100c06101ed565b6040516100cd9190610848565b60405180910390f35b3480156100e257600080fd5b506100eb610213565b6040516100f89190610884565b60405180910390f35b34801561010d57600080fd5b50610116610239565b6040516101239190610848565b60405180910390f35b34801561013857600080fd5b5061014161025f565b60405161014e91906108b8565b60405180910390f35b34801561016357600080fd5b5061016c610265565b6040516101799190610848565b60405180910390f35b34801561018e57600080fd5b5061019761028b565b6040516101a49190610848565b60405180910390f35b6101c760048036038101906101c29190610a85565b6102b1565b005b60008054906101000a900473ffffffffffffffffffffffffffffffffffffffff1681565b600360009054906101000a900473ffffffffffffffffffffffffffffffffffffffff1681565b600160009054906101000a900473ffffffffffffffffffffffffffffffffffffffff1681565b600660009054906101000a900473ffffffffffffffffffffffffffffffffffffffff1681565b60025481565b600460009054906101000a900473ffffffffffffffffffffffffffffffffffffffff1681565b600560009054906101000a900473ffffffffffffffffffffffffffffffffffffffff1681565b600160009054906101000a900473ffffffffffffffffffffffffffffffffffffffff1673ffffffffffffffffffffffffffffffffffffffff163373ffffffffffffffffffffffffffffffffffffffff161461030b57600080fd5b806000806101000a81548173ffffffffffffffffffffffffffffffffffffffff021916908373ffffffffffffffffffffffffffffffffffffffff1602179055508160028190555081341015610395576040517f08c379a000000000000000000000000000000000000000000000000000000000815260040161038c90610b77565b60405180910390fd5b7f26e642463f2c1b1040a5a5a2a727dd043c1e84db1e696a7e0a2589d204abb9a0600160009054906101000a900473ffffffffffffffffffffffffffffffffffffffff1660008054906101000a900473ffffffffffffffffffffffffffffffffffffffff16600360009054906101000a900473ffffffffffffffffffffffffffffffffffffffff16600460009054906101000a900473ffffffffffffffffffffffffffffffffffffffff16600560009054906101000a900473ffffffffffffffffffffffffffffffffffffffff16600660009054906101000a900473ffffffffffffffffffffffffffffffffffffffff1660405161049896959493929190610bf6565b60405180910390a17f2b17ae6f925482e2d359ac045ef6fe3622bb635663a5a1e939987223378ed44b836002546040516104d3929190610cc5565b60405180910390a16104e36104e8565b505050565b6000600360009054906101000a900473ffffffffffffffffffffffffffffffffffffffff169050476002541115610617578073ffffffffffffffffffffffffffffffffffffffff1663343dbfc36003600460009054906101000a900473ffffffffffffffffffffffffffffffffffffffff16600560009054906101000a900473ffffffffffffffffffffffffffffffffffffffff166040518463ffffffff1660e01b815260040161059b93929190610d30565b600060405180830381600087803b1580156105b557600080fd5b505af11580156105c9573d6000803e3d6000fd5b50505050476002541115610612576040517f08c379a000000000000000000000000000000000000000000000000000000000815260040161060990610dd9565b60405180910390fd5b610804565b8073ffffffffffffffffffffffffffffffffffffffff1663d0e30db06002546040518263ffffffff1660e01b81526004016000604051808303818588803b15801561066157600080fd5b505af1158015610675573d6000803e3d6000fd5b50505050508073ffffffffffffffffffffffffffffffffffffffff1663343dbfc36000600460009054906101000a900473ffffffffffffffffffffffffffffffffffffffff16600560009054906101000a900473ffffffffffffffffffffffffffffffffffffffff166040518463ffffffff1660e01b81526004016106fc93929190610e34565b600060405180830381600087803b15801561071657600080fd5b505af115801561072a573d6000803e3d6000fd5b5050505060004790506000600160009054906101000a900473ffffffffffffffffffffffffffffffffffffffff1673ffffffffffffffffffffffffffffffffffffffff168260405161077b90610e9c565b60006040518083038185875af1925050503d80600081146107b8576040519150601f19603f3d011682016040523d82523d6000602084013e6107bd565b606091505b5050905080610801576040517f08c379a00000000000000000000000000000000000000000000000000000000081526004016107f890610efd565b60405180910390fd5b50505b50565b600073ffffffffffffffffffffffffffffffffffffffff82169050919050565b600061083282610807565b9050919050565b61084281610827565b82525050565b600060208201905061085d6000830184610839565b92915050565b600061086e82610807565b9050919050565b61087e81610863565b82525050565b60006020820190506108996000830184610875565b92915050565b6000819050919050565b6108b28161089f565b82525050565b60006020820190506108cd60008301846108a9565b92915050565b6000604051905090565b600080fd5b600080fd5b600080fd5b600080fd5b6000601f19601f8301169050919050565b7f4e487b7100000000000000000000000000000000000000000000000000000000600052604160045260246000fd5b61093a826108f1565b810181811067ffffffffffffffff8211171561095957610958610902565b5b80604052505050565b600061096c6108d3565b90506109788282610931565b919050565b600067ffffffffffffffff82111561099857610997610902565b5b6109a1826108f1565b9050602081019050919050565b82818337600083830152505050565b60006109d06109cb8461097d565b610962565b9050828152602081018484840111156109ec576109eb6108ec565b5b6109f78482856109ae565b509392505050565b600082601f830112610a1457610a136108e7565b5b8135610a248482602086016109bd565b91505092915050565b610a368161089f565b8114610a4157600080fd5b50565b600081359050610a5381610a2d565b92915050565b610a6281610827565b8114610a6d57600080fd5b50565b600081359050610a7f81610a59565b92915050565b600080600060608486031215610a9e57610a9d6108dd565b5b600084013567ffffffffffffffff811115610abc57610abb6108e2565b5b610ac8868287016109ff565b9350506020610ad986828701610a44565b9250506040610aea86828701610a70565b9150509250925092565b600082825260208201905092915050565b7f5469656e65732071756520706f6e6572204574686572207061726120706f646560008201527f7220636f6d707261726c6f000000000000000000000000000000000000000000602082015250565b6000610b61602b83610af4565b9150610b6c82610b05565b604082019050919050565b60006020820190508181036000830152610b9081610b54565b9050919050565b6000819050919050565b6000610bbc610bb7610bb284610807565b610b97565b610807565b9050919050565b6000610bce82610ba1565b9050919050565b6000610be082610bc3565b9050919050565b610bf081610bd5565b82525050565b600060c082019050610c0b6000830189610be7565b610c186020830188610839565b610c256040830187610839565b610c326060830186610839565b610c3f6080830185610839565b610c4c60a0830184610839565b979650505050505050565b600081519050919050565b60005b83811015610c80578082015181840152602081019050610c65565b60008484015250505050565b6000610c9782610c57565b610ca18185610af4565b9350610cb1818560208601610c62565b610cba816108f1565b840191505092915050565b60006040820190508181036000830152610cdf8185610c8c565b9050610cee60208301846108a9565b9392505050565b6000819050919050565b6000610d1a610d15610d1084610cf5565b610b97565b61089f565b9050919050565b610d2a81610cff565b82525050565b6000606082019050610d456000830186610d21565b610d526020830185610839565b610d5f6040830184610839565b949350505050565b7f4e6f2068617920737566696369656e746520657468657220656e20657374652060008201527f636f6e747261746f2e0000000000000000000000000000000000000000000000602082015250565b6000610dc3602983610af4565b9150610dce82610d67565b604082019050919050565b60006020820190508181036000830152610df281610db6565b9050919050565b6000819050919050565b6000610e1e610e19610e1484610df9565b610b97565b61089f565b9050919050565b610e2e81610e03565b82525050565b6000606082019050610e496000830186610e25565b610e566020830185610839565b610e636040830184610839565b949350505050565b600081905092915050565b50565b6000610e86600083610e6b565b9150610e9182610e76565b600082019050919050565b6000610ea782610e79565b9150819050919050565b7f46616c6c6f20656e7669616e646f204574686572000000000000000000000000600082015250565b6000610ee7601483610af4565b9150610ef282610eb1565b602082019050919050565b60006020820190508181036000830152610f1681610eda565b905091905056fea2646970667358221220e29e3f95f1838a699057dfed492927859c6912a3a2d58d189dc913c758b8cb6364736f6c63430008120033",
  "linkReferences": {},
  "deployedLinkReferences": {}
}