{
  "_format": "hh-sol-artifact-1",
  "contractName": "Pago",
  "sourceName": "contracts/contratoPago.sol",
  "abi": [
    {
      "inputs": [],
      "stateMutability": "payable",
      "type": "constructor"
    },
    {
      "anonymous": false,
      "inputs": [
        {
          "indexed": false,
          "internalType": "enum Pago.StateType",
          "name": "State",
          "type": "uint8"
        },
        {
          "indexed": false,
          "internalType": "address",
          "name": "walletUser",
          "type": "address"
        },
        {
          "indexed": false,
          "internalType": "address",
          "name": "walletRestaurante",
          "type": "address"
        },
        {
          "indexed": false,
          "internalType": "address",
          "name": "walletRepartidor",
          "type": "address"
        },
        {
          "indexed": false,
          "internalType": "uint256",
          "name": "TransaccionRealizada",
          "type": "uint256"
        }
      ],
      "name": "StatusPago",
      "type": "event"
    },
    {
      "inputs": [],
      "name": "State",
      "outputs": [
        {
          "internalType": "enum Pago.StateType",
          "name": "",
          "type": "uint8"
        }
      ],
      "stateMutability": "view",
      "type": "function"
    },
    {
      "inputs": [
        {
          "internalType": "address",
          "name": "usuario",
          "type": "address"
        },
        {
          "internalType": "address",
          "name": "restaurante",
          "type": "address"
        },
        {
          "internalType": "address",
          "name": "repartidor",
          "type": "address"
        }
      ],
      "name": "activate",
      "outputs": [],
      "stateMutability": "nonpayable",
      "type": "function"
    },
    {
      "inputs": [
        {
          "internalType": "address",
          "name": "contPedido",
          "type": "address"
        },
        {
          "internalType": "uint256",
          "name": "resolution",
          "type": "uint256"
        },
        {
          "internalType": "address",
          "name": "contCompensacion",
          "type": "address"
        }
      ],
      "name": "decideWhotoPay",
      "outputs": [],
      "stateMutability": "nonpayable",
      "type": "function"
    },
    {
      "inputs": [],
      "name": "deliver",
      "outputs": [
        {
          "internalType": "address",
          "name": "",
          "type": "address"
        }
      ],
      "stateMutability": "view",
      "type": "function"
    },
    {
      "inputs": [],
      "name": "deposit",
      "outputs": [],
      "stateMutability": "payable",
      "type": "function"
    },
    {
      "inputs": [],
      "name": "restaurant",
      "outputs": [
        {
          "internalType": "address",
          "name": "",
          "type": "address"
        }
      ],
      "stateMutability": "view",
      "type": "function"
    },
    {
      "inputs": [],
      "name": "user",
      "outputs": [
        {
          "internalType": "address",
          "name": "",
          "type": "address"
        }
      ],
      "stateMutability": "view",
      "type": "function"
    }
  ],
  "bytecode": "0x60806040526001600260146101000a81548160ff0219169083600181111561002a57610029610034565b5b0217905550610063565b7f4e487b7100000000000000000000000000000000000000000000000000000000600052602160045260246000fd5b61101d806100726000396000f3fe6080604052600436106100705760003560e01c8063d0e30db01161004e578063d0e30db0146100f2578063ed168058146100fc578063f1b6dccd14610127578063fd3e50a71461015257610070565b8063119b90cd14610075578063137cdf301461009e5780634f8632ba146100c7575b600080fd5b34801561008157600080fd5b5061009c60048036038101906100979190610977565b61017d565b005b3480156100aa57600080fd5b506100c560048036038101906100c09190610a00565b610322565b005b3480156100d357600080fd5b506100dc61088f565b6040516100e99190610a62565b60405180910390f35b6100fa6108b3565b005b34801561010857600080fd5b506101116108b5565b60405161011e9190610a62565b60405180910390f35b34801561013357600080fd5b5061013c6108db565b6040516101499190610af4565b60405180910390f35b34801561015e57600080fd5b506101676108ee565b6040516101749190610a62565b60405180910390f35b6000600260146101000a81548160ff021916908360018111156101a3576101a2610a7d565b5b0217905550826000806101000a81548173ffffffffffffffffffffffffffffffffffffffff021916908373ffffffffffffffffffffffffffffffffffffffff16021790555081600160006101000a81548173ffffffffffffffffffffffffffffffffffffffff021916908373ffffffffffffffffffffffffffffffffffffffff16021790555080600260006101000a81548173ffffffffffffffffffffffffffffffffffffffff021916908373ffffffffffffffffffffffffffffffffffffffff1602179055507fc770763a378101874ebea914f0305c84e48e070b015fbffb2dd9ef3988cd4cc7600260149054906101000a900460ff1660008054906101000a900473ffffffffffffffffffffffffffffffffffffffff16600160009054906101000a900473ffffffffffffffffffffffffffffffffffffffff16600260009054906101000a900473ffffffffffffffffffffffffffffffffffffffff166002604051610315959493929190610b54565b60405180910390a1505050565b600083905060008173ffffffffffffffffffffffffffffffffffffffff16631865c57d6040518163ffffffff1660e01b81526004016020604051808303816000875af1158015610376573d6000803e3d6000fd5b505050506040513d601f19601f8201168201806040525081019061039a9190610bbc565b9050600281146103df576040517f08c379a00000000000000000000000000000000000000000000000000000000081526004016103d690610c6c565b60405180910390fd5b600184036106395760006064605a476103f89190610cbb565b6104029190610d2c565b905060006064600a476104159190610cbb565b61041f9190610d2c565b9050600080600160009054906101000a900473ffffffffffffffffffffffffffffffffffffffff1673ffffffffffffffffffffffffffffffffffffffff168460405161046a90610d8e565b60006040518083038185875af1925050503d80600081146104a7576040519150601f19603f3d011682016040523d82523d6000602084013e6104ac565b606091505b5091509150816104f1576040517f08c379a00000000000000000000000000000000000000000000000000000000081526004016104e890610e15565b60405180910390fd5b600080600260009054906101000a900473ffffffffffffffffffffffffffffffffffffffff1673ffffffffffffffffffffffffffffffffffffffff168560405161053a90610d8e565b60006040518083038185875af1925050503d8060008114610577576040519150601f19603f3d011682016040523d82523d6000602084013e61057c565b606091505b5091509150816105c1576040517f08c379a00000000000000000000000000000000000000000000000000000000081526004016105b890610e81565b60405180910390fd5b8773ffffffffffffffffffffffffffffffffffffffff1663343dbfc360036000806040518463ffffffff1660e01b815260040161060093929190610edc565b600060405180830381600087803b15801561061a57600080fd5b505af115801561062e573d6000803e3d6000fd5b505050505050505050505b600084036107ab57600047905060008490508073ffffffffffffffffffffffffffffffffffffffff1663d0e30db0836040518263ffffffff1660e01b81526004016000604051808303818588803b15801561069357600080fd5b505af11580156106a7573d6000803e3d6000fd5b50505050508073ffffffffffffffffffffffffffffffffffffffff166349c055f860008054906101000a900473ffffffffffffffffffffffffffffffffffffffff166040518263ffffffff1660e01b81526004016107059190610a62565b600060405180830381600087803b15801561071f57600080fd5b505af1158015610733573d6000803e3d6000fd5b505050508373ffffffffffffffffffffffffffffffffffffffff1663343dbfc360046000806040518463ffffffff1660e01b815260040161077693929190610f4e565b600060405180830381600087803b15801561079057600080fd5b505af11580156107a4573d6000803e3d6000fd5b5050505050505b6001600260146101000a81548160ff021916908360018111156107d1576107d0610a7d565b5b02179055507fc770763a378101874ebea914f0305c84e48e070b015fbffb2dd9ef3988cd4cc7600260149054906101000a900460ff1660008054906101000a900473ffffffffffffffffffffffffffffffffffffffff16600160009054906101000a900473ffffffffffffffffffffffffffffffffffffffff16600260009054906101000a900473ffffffffffffffffffffffffffffffffffffffff1688604051610880959493929190610f94565b60405180910390a15050505050565b60008054906101000a900473ffffffffffffffffffffffffffffffffffffffff1681565b565b600160009054906101000a900473ffffffffffffffffffffffffffffffffffffffff1681565b600260149054906101000a900460ff1681565b600260009054906101000a900473ffffffffffffffffffffffffffffffffffffffff1681565b600080fd5b600073ffffffffffffffffffffffffffffffffffffffff82169050919050565b600061094482610919565b9050919050565b61095481610939565b811461095f57600080fd5b50565b6000813590506109718161094b565b92915050565b6000806000606084860312156109905761098f610914565b5b600061099e86828701610962565b93505060206109af86828701610962565b92505060406109c086828701610962565b9150509250925092565b6000819050919050565b6109dd816109ca565b81146109e857600080fd5b50565b6000813590506109fa816109d4565b92915050565b600080600060608486031215610a1957610a18610914565b5b6000610a2786828701610962565b9350506020610a38868287016109eb565b9250506040610a4986828701610962565b9150509250925092565b610a5c81610939565b82525050565b6000602082019050610a776000830184610a53565b92915050565b7f4e487b7100000000000000000000000000000000000000000000000000000000600052602160045260246000fd5b60028110610abd57610abc610a7d565b5b50565b6000819050610ace82610aac565b919050565b6000610ade82610ac0565b9050919050565b610aee81610ad3565b82525050565b6000602082019050610b096000830184610ae5565b92915050565b6000819050919050565b6000819050919050565b6000610b3e610b39610b3484610b0f565b610b19565b6109ca565b9050919050565b610b4e81610b23565b82525050565b600060a082019050610b696000830188610ae5565b610b766020830187610a53565b610b836040830186610a53565b610b906060830185610a53565b610b9d6080830184610b45565b9695505050505050565b600081519050610bb6816109d4565b92915050565b600060208284031215610bd257610bd1610914565b5b6000610be084828501610ba7565b91505092915050565b600082825260208201905092915050565b7f41756e206e6f20736520686120656e7472656761646f20656c2070656469646f60008201527f2e00000000000000000000000000000000000000000000000000000000000000602082015250565b6000610c56602183610be9565b9150610c6182610bfa565b604082019050919050565b60006020820190508181036000830152610c8581610c49565b9050919050565b7f4e487b7100000000000000000000000000000000000000000000000000000000600052601160045260246000fd5b6000610cc6826109ca565b9150610cd1836109ca565b9250828202610cdf816109ca565b91508282048414831517610cf657610cf5610c8c565b5b5092915050565b7f4e487b7100000000000000000000000000000000000000000000000000000000600052601260045260246000fd5b6000610d37826109ca565b9150610d42836109ca565b925082610d5257610d51610cfd565b5b828204905092915050565b600081905092915050565b50565b6000610d78600083610d5d565b9150610d8382610d68565b600082019050919050565b6000610d9982610d6b565b9150819050919050565b7f4661696c656420746f2073656e6420457468657220746f20726573746175726160008201527f6e74000000000000000000000000000000000000000000000000000000000000602082015250565b6000610dff602283610be9565b9150610e0a82610da3565b604082019050919050565b60006020820190508181036000830152610e2e81610df2565b9050919050565b7f4661696c656420746f2073656e6420457468657220746f2064656c6976657279600082015250565b6000610e6b602083610be9565b9150610e7682610e35565b602082019050919050565b60006020820190508181036000830152610e9a81610e5e565b9050919050565b6000819050919050565b6000610ec6610ec1610ebc84610ea1565b610b19565b6109ca565b9050919050565b610ed681610eab565b82525050565b6000606082019050610ef16000830186610ecd565b610efe6020830185610a53565b610f0b6040830184610a53565b949350505050565b6000819050919050565b6000610f38610f33610f2e84610f13565b610b19565b6109ca565b9050919050565b610f4881610f1d565b82525050565b6000606082019050610f636000830186610f3f565b610f706020830185610a53565b610f7d6040830184610a53565b949350505050565b610f8e816109ca565b82525050565b600060a082019050610fa96000830188610ae5565b610fb66020830187610a53565b610fc36040830186610a53565b610fd06060830185610a53565b610fdd6080830184610f85565b969550505050505056fea2646970667358221220785024c1719e3ddc2a37db1293da9a1a20d748c53d0a939774da6e46a806f8fe64736f6c63430008120033",
  "linkReferences": {},
  "deployedLinkReferences": {}
}